{
	"_format": "hh-sol-artifact-1",
	"contractName": "Completion",
	"sourceName": "contracts/Completion.sol",
	"abi": [
		{
			"inputs": [
				{
					"internalType": "string",
					"name": "name",
					"type": "string"
				},
				{
					"internalType": "string",
					"name": "symbol",
					"type": "string"
				}
			],
			"stateMutability": "nonpayable",
			"type": "constructor"
		},
		{
			"anonymous": false,
			"inputs": [
				{
					"indexed": true,
					"internalType": "address",
					"name": "owner",
					"type": "address"
				},
				{
					"indexed": true,
					"internalType": "address",
					"name": "approved",
					"type": "address"
				},
				{
					"indexed": true,
					"internalType": "uint256",
					"name": "tokenId",
					"type": "uint256"
				}
			],
			"name": "Approval",
			"type": "event"
		},
		{
			"anonymous": false,
			"inputs": [
				{
					"indexed": true,
					"internalType": "address",
					"name": "owner",
					"type": "address"
				},
				{
					"indexed": true,
					"internalType": "address",
					"name": "operator",
					"type": "address"
				},
				{
					"indexed": false,
					"internalType": "bool",
					"name": "approved",
					"type": "bool"
				}
			],
			"name": "ApprovalForAll",
			"type": "event"
		},
		{
			"anonymous": false,
			"inputs": [
				{
					"indexed": true,
					"internalType": "address",
					"name": "from",
					"type": "address"
				},
				{
					"indexed": true,
					"internalType": "address",
					"name": "to",
					"type": "address"
				},
				{
					"indexed": true,
					"internalType": "uint256",
					"name": "tokenId",
					"type": "uint256"
				}
			],
			"name": "Transfer",
			"type": "event"
		},
		{
			"inputs": [
				{
					"internalType": "address",
					"name": "to",
					"type": "address"
				},
				{
					"internalType": "uint256",
					"name": "tokenId",
					"type": "uint256"
				}
			],
			"name": "approve",
			"outputs": [],
			"stateMutability": "nonpayable",
			"type": "function"
		},
		{
			"inputs": [
				{
					"internalType": "address",
					"name": "owner",
					"type": "address"
				}
			],
			"name": "balanceOf",
			"outputs": [
				{
					"internalType": "uint256",
					"name": "",
					"type": "uint256"
				}
			],
			"stateMutability": "view",
			"type": "function"
		},
		{
			"inputs": [
				{
					"internalType": "uint256",
					"name": "tokenId",
					"type": "uint256"
				}
			],
			"name": "getApproved",
			"outputs": [
				{
					"internalType": "address",
					"name": "",
					"type": "address"
				}
			],
			"stateMutability": "view",
			"type": "function"
		},
		{
			"inputs": [
				{
					"internalType": "address",
					"name": "owner",
					"type": "address"
				},
				{
					"internalType": "address",
					"name": "operator",
					"type": "address"
				}
			],
			"name": "isApprovedForAll",
			"outputs": [
				{
					"internalType": "bool",
					"name": "",
					"type": "bool"
				}
			],
			"stateMutability": "view",
			"type": "function"
		},
		{
			"inputs": [
				{
					"internalType": "address",
					"name": "_to",
					"type": "address"
				},
				{
					"internalType": "string",
					"name": "_tokenURI",
					"type": "string"
				}
			],
			"name": "mint",
			"outputs": [],
			"stateMutability": "nonpayable",
			"type": "function"
		},
		{
			"inputs": [],
			"name": "name",
			"outputs": [
				{
					"internalType": "string",
					"name": "",
					"type": "string"
				}
			],
			"stateMutability": "view",
			"type": "function"
		},
		{
			"inputs": [
				{
					"internalType": "uint256",
					"name": "tokenId",
					"type": "uint256"
				}
			],
			"name": "ownerOf",
			"outputs": [
				{
					"internalType": "address",
					"name": "",
					"type": "address"
				}
			],
			"stateMutability": "view",
			"type": "function"
		},
		{
			"inputs": [
				{
					"internalType": "address",
					"name": "from",
					"type": "address"
				},
				{
					"internalType": "address",
					"name": "to",
					"type": "address"
				},
				{
					"internalType": "uint256",
					"name": "tokenId",
					"type": "uint256"
				}
			],
			"name": "safeTransferFrom",
			"outputs": [],
			"stateMutability": "nonpayable",
			"type": "function"
		},
		{
			"inputs": [
				{
					"internalType": "address",
					"name": "from",
					"type": "address"
				},
				{
					"internalType": "address",
					"name": "to",
					"type": "address"
				},
				{
					"internalType": "uint256",
					"name": "tokenId",
					"type": "uint256"
				},
				{
					"internalType": "bytes",
					"name": "data",
					"type": "bytes"
				}
			],
			"name": "safeTransferFrom",
			"outputs": [],
			"stateMutability": "nonpayable",
			"type": "function"
		},
		{
			"inputs": [
				{
					"internalType": "address",
					"name": "operator",
					"type": "address"
				},
				{
					"internalType": "bool",
					"name": "approved",
					"type": "bool"
				}
			],
			"name": "setApprovalForAll",
			"outputs": [],
			"stateMutability": "nonpayable",
			"type": "function"
		},
		{
			"inputs": [
				{
					"internalType": "bytes4",
					"name": "interfaceId",
					"type": "bytes4"
				}
			],
			"name": "supportsInterface",
			"outputs": [
				{
					"internalType": "bool",
					"name": "",
					"type": "bool"
				}
			],
			"stateMutability": "view",
			"type": "function"
		},
		{
			"inputs": [],
			"name": "symbol",
			"outputs": [
				{
					"internalType": "string",
					"name": "",
					"type": "string"
				}
			],
			"stateMutability": "view",
			"type": "function"
		},
		{
			"inputs": [],
			"name": "tokenCounter",
			"outputs": [
				{
					"internalType": "uint256",
					"name": "",
					"type": "uint256"
				}
			],
			"stateMutability": "view",
			"type": "function"
		},
		{
			"inputs": [
				{
					"internalType": "uint256",
					"name": "_tokenId",
					"type": "uint256"
				}
			],
			"name": "tokenURI",
			"outputs": [
				{
					"internalType": "string",
					"name": "",
					"type": "string"
				}
			],
			"stateMutability": "view",
			"type": "function"
		},
		{
			"inputs": [
				{
					"internalType": "address",
					"name": "from",
					"type": "address"
				},
				{
					"internalType": "address",
					"name": "to",
					"type": "address"
				},
				{
					"internalType": "uint256",
					"name": "tokenId",
					"type": "uint256"
				}
			],
			"name": "transferFrom",
			"outputs": [],
			"stateMutability": "nonpayable",
			"type": "function"
		}
	],
	"bytecode": "0x60806040523480156200001157600080fd5b506040516200292c3803806200292c83398181016040528101906200003791906200019f565b81818160009080519060200190620000519291906200007d565b5080600190805190602001906200006a9291906200007d565b5050506000600681905550505062000382565b8280546200008b90620002a7565b90600052602060002090601f016020900481019282620000af5760008555620000fb565b82601f10620000ca57805160ff1916838001178555620000fb565b82800160010185558215620000fb579182015b82811115620000fa578251825591602001919060010190620000dd565b5b5090506200010a91906200010e565b5090565b5b80821115620001295760008160009055506001016200010f565b5090565b6000620001446200013e846200023b565b62000212565b9050828152602081018484840111156200015d57600080fd5b6200016a84828562000271565b509392505050565b600082601f8301126200018457600080fd5b8151620001968482602086016200012d565b91505092915050565b60008060408385031215620001b357600080fd5b600083015167ffffffffffffffff811115620001ce57600080fd5b620001dc8582860162000172565b925050602083015167ffffffffffffffff811115620001fa57600080fd5b620002088582860162000172565b9150509250929050565b60006200021e62000231565b90506200022c8282620002dd565b919050565b6000604051905090565b600067ffffffffffffffff82111562000259576200025862000342565b5b620002648262000371565b9050602081019050919050565b60005b838110156200029157808201518184015260208101905062000274565b83811115620002a1576000848401525b50505050565b60006002820490506001821680620002c057607f821691505b60208210811415620002d757620002d662000313565b5b50919050565b620002e88262000371565b810181811067ffffffffffffffff821117156200030a576200030962000342565b5b80604052505050565b7f4e487b7100000000000000000000000000000000000000000000000000000000600052602260045260246000fd5b7f4e487b7100000000000000000000000000000000000000000000000000000000600052604160045260246000fd5b6000601f19601f8301169050919050565b61259a80620003926000396000f3fe608060405234801561001057600080fd5b50600436106100f55760003560e01c806370a0823111610097578063c87b56dd11610066578063c87b56dd14610282578063d082e381146102b2578063d0def521146102d0578063e985e9c5146102ec576100f5565b806370a08231146101fc57806395d89b411461022c578063a22cb4651461024a578063b88d4fde14610266576100f5565b8063095ea7b3116100d3578063095ea7b31461017857806323b872dd1461019457806342842e0e146101b05780636352211e146101cc576100f5565b806301ffc9a7146100fa57806306fdde031461012a578063081812fc14610148575b600080fd5b610114600480360381019061010f91906119a6565b61031c565b6040516101219190611ccb565b60405180910390f35b6101326103fe565b60405161013f9190611ce6565b60405180910390f35b610162600480360381019061015d91906119f8565b610490565b60405161016f9190611c64565b60405180910390f35b610192600480360381019061018d919061196a565b6104d6565b005b6101ae60048036038101906101a99190611810565b6105ee565b005b6101ca60048036038101906101c59190611810565b61064e565b005b6101e660048036038101906101e191906119f8565b61066e565b6040516101f39190611c64565b60405180910390f35b610216600480360381019061021191906117ab565b610720565b6040516102239190611e88565b60405180910390f35b6102346107d8565b6040516102419190611ce6565b60405180910390f35b610264600480360381019061025f91906118da565b61086a565b005b610280600480360381019061027b919061185f565b610880565b005b61029c600480360381019061029791906119f8565b6108e2565b6040516102a99190611ce6565b60405180910390f35b6102ba6109cf565b6040516102c79190611e88565b60405180910390f35b6102ea60048036038101906102e59190611916565b6109d5565b005b610306600480360381019061030191906117d4565b610a09565b6040516103139190611ccb565b60405180910390f35b60007f80ac58cd000000000000000000000000000000000000000000000000000000007bffffffffffffffffffffffffffffffffffffffffffffffffffffffff1916827bffffffffffffffffffffffffffffffffffffffffffffffffffffffff191614806103e757507f5b5e139f000000000000000000000000000000000000000000000000000000007bffffffffffffffffffffffffffffffffffffffffffffffffffffffff1916827bffffffffffffffffffffffffffffffffffffffffffffffffffffffff1916145b806103f757506103f682610a9d565b5b9050919050565b60606000805461040d906120a2565b80601f0160208091040260200160405190810160405280929190818152602001828054610439906120a2565b80156104865780601f1061045b57610100808354040283529160200191610486565b820191906000526020600020905b81548152906001019060200180831161046957829003601f168201915b5050505050905090565b600061049b82610b07565b6004600083815260200190815260200160002060009054906101000a900473ffffffffffffffffffffffffffffffffffffffff169050919050565b60006104e18261066e565b90508073ffffffffffffffffffffffffffffffffffffffff168373ffffffffffffffffffffffffffffffffffffffff161415610552576040517f08c379a000000000000000000000000000000000000000000000000000000000815260040161054990611e48565b60405180910390fd5b8073ffffffffffffffffffffffffffffffffffffffff16610571610b52565b73ffffffffffffffffffffffffffffffffffffffff1614806105a0575061059f8161059a610b52565b610a09565b5b6105df576040517f08c379a00000000000000000000000000000000000000000000000000000000081526004016105d690611de8565b60405180910390fd5b6105e98383610b5a565b505050565b6105ff6105f9610b52565b82610c13565b61063e576040517f08c379a000000000000000000000000000000000000000000000000000000000815260040161063590611e68565b60405180910390fd5b610649838383610ca8565b505050565b61066983838360405180602001604052806000815250610880565b505050565b6000806002600084815260200190815260200160002060009054906101000a900473ffffffffffffffffffffffffffffffffffffffff169050600073ffffffffffffffffffffffffffffffffffffffff168173ffffffffffffffffffffffffffffffffffffffff161415610717576040517f08c379a000000000000000000000000000000000000000000000000000000000815260040161070e90611e28565b60405180910390fd5b80915050919050565b60008073ffffffffffffffffffffffffffffffffffffffff168273ffffffffffffffffffffffffffffffffffffffff161415610791576040517f08c379a000000000000000000000000000000000000000000000000000000000815260040161078890611dc8565b60405180910390fd5b600360008373ffffffffffffffffffffffffffffffffffffffff1673ffffffffffffffffffffffffffffffffffffffff168152602001908152602001600020549050919050565b6060600180546107e7906120a2565b80601f0160208091040260200160405190810160405280929190818152602001828054610813906120a2565b80156108605780601f1061083557610100808354040283529160200191610860565b820191906000526020600020905b81548152906001019060200180831161084357829003601f168201915b5050505050905090565b61087c610875610b52565b8383610f0f565b5050565b61089161088b610b52565b83610c13565b6108d0576040517f08c379a00000000000000000000000000000000000000000000000000000000081526004016108c790611e68565b60405180910390fd5b6108dc8484848461107c565b50505050565b60606108ed826110d8565b61092c576040517f08c379a000000000000000000000000000000000000000000000000000000000815260040161092390611da8565b60405180910390fd5b60076000838152602001908152602001600020805461094a906120a2565b80601f0160208091040260200160405190810160405280929190818152602001828054610976906120a2565b80156109c35780601f10610998576101008083540402835291602001916109c3565b820191906000526020600020905b8154815290600101906020018083116109a657829003601f168201915b50505050509050919050565b60065481565b6109e182600654611144565b6109ed60065482611162565b60066000815480929190610a0090612105565b91905055505050565b6000600560008473ffffffffffffffffffffffffffffffffffffffff1673ffffffffffffffffffffffffffffffffffffffff16815260200190815260200160002060008373ffffffffffffffffffffffffffffffffffffffff1673ffffffffffffffffffffffffffffffffffffffff16815260200190815260200160002060009054906101000a900460ff16905092915050565b60007f01ffc9a7000000000000000000000000000000000000000000000000000000007bffffffffffffffffffffffffffffffffffffffffffffffffffffffff1916827bffffffffffffffffffffffffffffffffffffffffffffffffffffffff1916149050919050565b610b10816110d8565b610b4f576040517f08c379a0000000000000000000000000000000000000000000000000000000008152600401610b4690611e28565b60405180910390fd5b50565b600033905090565b816004600083815260200190815260200160002060006101000a81548173ffffffffffffffffffffffffffffffffffffffff021916908373ffffffffffffffffffffffffffffffffffffffff160217905550808273ffffffffffffffffffffffffffffffffffffffff16610bcd8361066e565b73ffffffffffffffffffffffffffffffffffffffff167f8c5be1e5ebec7d5bd14f71427d1e84f3dd0314c0f7b2291e5b200ac8c7c3b92560405160405180910390a45050565b600080610c1f8361066e565b90508073ffffffffffffffffffffffffffffffffffffffff168473ffffffffffffffffffffffffffffffffffffffff161480610c615750610c608185610a09565b5b80610c9f57508373ffffffffffffffffffffffffffffffffffffffff16610c8784610490565b73ffffffffffffffffffffffffffffffffffffffff16145b91505092915050565b8273ffffffffffffffffffffffffffffffffffffffff16610cc88261066e565b73ffffffffffffffffffffffffffffffffffffffff1614610d1e576040517f08c379a0000000000000000000000000000000000000000000000000000000008152600401610d1590611d28565b60405180910390fd5b600073ffffffffffffffffffffffffffffffffffffffff168273ffffffffffffffffffffffffffffffffffffffff161415610d8e576040517f08c379a0000000000000000000000000000000000000000000000000000000008152600401610d8590611d68565b60405180910390fd5b610d998383836111d6565b610da4600082610b5a565b6001600360008573ffffffffffffffffffffffffffffffffffffffff1673ffffffffffffffffffffffffffffffffffffffff1681526020019081526020016000206000828254610df49190611fb8565b925050819055506001600360008473ffffffffffffffffffffffffffffffffffffffff1673ffffffffffffffffffffffffffffffffffffffff1681526020019081526020016000206000828254610e4b9190611f62565b92505081905550816002600083815260200190815260200160002060006101000a81548173ffffffffffffffffffffffffffffffffffffffff021916908373ffffffffffffffffffffffffffffffffffffffff160217905550808273ffffffffffffffffffffffffffffffffffffffff168473ffffffffffffffffffffffffffffffffffffffff167fddf252ad1be2c89b69c2b068fc378daa952ba7f163c4a11628f55a4df523b3ef60405160405180910390a4610f0a8383836111db565b505050565b8173ffffffffffffffffffffffffffffffffffffffff168373ffffffffffffffffffffffffffffffffffffffff161415610f7e576040517f08c379a0000000000000000000000000000000000000000000000000000000008152600401610f7590611d88565b60405180910390fd5b80600560008573ffffffffffffffffffffffffffffffffffffffff1673ffffffffffffffffffffffffffffffffffffffff16815260200190815260200160002060008473ffffffffffffffffffffffffffffffffffffffff1673ffffffffffffffffffffffffffffffffffffffff16815260200190815260200160002060006101000a81548160ff0219169083151502179055508173ffffffffffffffffffffffffffffffffffffffff168373ffffffffffffffffffffffffffffffffffffffff167f17307eab39ab6107e8899845ad3d59bd9653f200f220920489ca2b5937696c318360405161106f9190611ccb565b60405180910390a3505050565b611087848484610ca8565b611093848484846111e0565b6110d2576040517f08c379a00000000000000000000000000000000000000000000000000000000081526004016110c990611d08565b60405180910390fd5b50505050565b60008073ffffffffffffffffffffffffffffffffffffffff166002600084815260200190815260200160002060009054906101000a900473ffffffffffffffffffffffffffffffffffffffff1673ffffffffffffffffffffffffffffffffffffffff1614159050919050565b61115e828260405180602001604052806000815250611377565b5050565b61116b826110d8565b6111aa576040517f08c379a00000000000000000000000000000000000000000000000000000000081526004016111a190611da8565b60405180910390fd5b806007600084815260200190815260200160002090805190602001906111d19291906115cf565b505050565b505050565b505050565b60006112018473ffffffffffffffffffffffffffffffffffffffff166113d2565b1561136a578373ffffffffffffffffffffffffffffffffffffffff1663150b7a0261122a610b52565b8786866040518563ffffffff1660e01b815260040161124c9493929190611c7f565b602060405180830381600087803b15801561126657600080fd5b505af192505050801561129757506040513d601f19601f8201168201806040525081019061129491906119cf565b60015b61131a573d80600081146112c7576040519150601f19603f3d011682016040523d82523d6000602084013e6112cc565b606091505b50600081511415611312576040517f08c379a000000000000000000000000000000000000000000000000000000000815260040161130990611d08565b60405180910390fd5b805181602001fd5b63150b7a0260e01b7bffffffffffffffffffffffffffffffffffffffffffffffffffffffff1916817bffffffffffffffffffffffffffffffffffffffffffffffffffffffff19161491505061136f565b600190505b949350505050565b61138183836113f5565b61138e60008484846111e0565b6113cd576040517f08c379a00000000000000000000000000000000000000000000000000000000081526004016113c490611d08565b60405180910390fd5b505050565b6000808273ffffffffffffffffffffffffffffffffffffffff163b119050919050565b600073ffffffffffffffffffffffffffffffffffffffff168273ffffffffffffffffffffffffffffffffffffffff161415611465576040517f08c379a000000000000000000000000000000000000000000000000000000000815260040161145c90611e08565b60405180910390fd5b61146e816110d8565b156114ae576040517f08c379a00000000000000000000000000000000000000000000000000000000081526004016114a590611d48565b60405180910390fd5b6114ba600083836111d6565b6001600360008473ffffffffffffffffffffffffffffffffffffffff1673ffffffffffffffffffffffffffffffffffffffff168152602001908152602001600020600082825461150a9190611f62565b92505081905550816002600083815260200190815260200160002060006101000a81548173ffffffffffffffffffffffffffffffffffffffff021916908373ffffffffffffffffffffffffffffffffffffffff160217905550808273ffffffffffffffffffffffffffffffffffffffff16600073ffffffffffffffffffffffffffffffffffffffff167fddf252ad1be2c89b69c2b068fc378daa952ba7f163c4a11628f55a4df523b3ef60405160405180910390a46115cb600083836111db565b5050565b8280546115db906120a2565b90600052602060002090601f0160209004810192826115fd5760008555611644565b82601f1061161657805160ff1916838001178555611644565b82800160010185558215611644579182015b82811115611643578251825591602001919060010190611628565b5b5090506116519190611655565b5090565b5b8082111561166e576000816000905550600101611656565b5090565b600061168561168084611ec8565b611ea3565b90508281526020810184848401111561169d57600080fd5b6116a8848285612060565b509392505050565b60006116c36116be84611ef9565b611ea3565b9050828152602081018484840111156116db57600080fd5b6116e6848285612060565b509392505050565b6000813590506116fd81612508565b92915050565b6000813590506117128161251f565b92915050565b60008135905061172781612536565b92915050565b60008151905061173c81612536565b92915050565b600082601f83011261175357600080fd5b8135611763848260208601611672565b91505092915050565b600082601f83011261177d57600080fd5b813561178d8482602086016116b0565b91505092915050565b6000813590506117a58161254d565b92915050565b6000602082840312156117bd57600080fd5b60006117cb848285016116ee565b91505092915050565b600080604083850312156117e757600080fd5b60006117f5858286016116ee565b9250506020611806858286016116ee565b9150509250929050565b60008060006060848603121561182557600080fd5b6000611833868287016116ee565b9350506020611844868287016116ee565b925050604061185586828701611796565b9150509250925092565b6000806000806080858703121561187557600080fd5b6000611883878288016116ee565b9450506020611894878288016116ee565b93505060406118a587828801611796565b925050606085013567ffffffffffffffff8111156118c257600080fd5b6118ce87828801611742565b91505092959194509250565b600080604083850312156118ed57600080fd5b60006118fb858286016116ee565b925050602061190c85828601611703565b9150509250929050565b6000806040838503121561192957600080fd5b6000611937858286016116ee565b925050602083013567ffffffffffffffff81111561195457600080fd5b6119608582860161176c565b9150509250929050565b6000806040838503121561197d57600080fd5b600061198b858286016116ee565b925050602061199c85828601611796565b9150509250929050565b6000602082840312156119b857600080fd5b60006119c684828501611718565b91505092915050565b6000602082840312156119e157600080fd5b60006119ef8482850161172d565b91505092915050565b600060208284031215611a0a57600080fd5b6000611a1884828501611796565b91505092915050565b611a2a81611fec565b82525050565b611a3981611ffe565b82525050565b6000611a4a82611f2a565b611a548185611f40565b9350611a6481856020860161206f565b611a6d816121db565b840191505092915050565b6000611a8382611f35565b611a8d8185611f51565b9350611a9d81856020860161206f565b611aa6816121db565b840191505092915050565b6000611abe603283611f51565b9150611ac9826121ec565b604082019050919050565b6000611ae1602583611f51565b9150611aec8261223b565b604082019050919050565b6000611b04601c83611f51565b9150611b0f8261228a565b602082019050919050565b6000611b27602483611f51565b9150611b32826122b3565b604082019050919050565b6000611b4a601983611f51565b9150611b5582612302565b602082019050919050565b6000611b6d602d83611f51565b9150611b788261232b565b604082019050919050565b6000611b90602983611f51565b9150611b9b8261237a565b604082019050919050565b6000611bb3603e83611f51565b9150611bbe826123c9565b604082019050919050565b6000611bd6602083611f51565b9150611be182612418565b602082019050919050565b6000611bf9601883611f51565b9150611c0482612441565b602082019050919050565b6000611c1c602183611f51565b9150611c278261246a565b604082019050919050565b6000611c3f602e83611f51565b9150611c4a826124b9565b604082019050919050565b611c5e81612056565b82525050565b6000602082019050611c796000830184611a21565b92915050565b6000608082019050611c946000830187611a21565b611ca16020830186611a21565b611cae6040830185611c55565b8181036060830152611cc08184611a3f565b905095945050505050565b6000602082019050611ce06000830184611a30565b92915050565b60006020820190508181036000830152611d008184611a78565b905092915050565b60006020820190508181036000830152611d2181611ab1565b9050919050565b60006020820190508181036000830152611d4181611ad4565b9050919050565b60006020820190508181036000830152611d6181611af7565b9050919050565b60006020820190508181036000830152611d8181611b1a565b9050919050565b60006020820190508181036000830152611da181611b3d565b9050919050565b60006020820190508181036000830152611dc181611b60565b9050919050565b60006020820190508181036000830152611de181611b83565b9050919050565b60006020820190508181036000830152611e0181611ba6565b9050919050565b60006020820190508181036000830152611e2181611bc9565b9050919050565b60006020820190508181036000830152611e4181611bec565b9050919050565b60006020820190508181036000830152611e6181611c0f565b9050919050565b60006020820190508181036000830152611e8181611c32565b9050919050565b6000602082019050611e9d6000830184611c55565b92915050565b6000611ead611ebe565b9050611eb982826120d4565b919050565b6000604051905090565b600067ffffffffffffffff821115611ee357611ee26121ac565b5b611eec826121db565b9050602081019050919050565b600067ffffffffffffffff821115611f1457611f136121ac565b5b611f1d826121db565b9050602081019050919050565b600081519050919050565b600081519050919050565b600082825260208201905092915050565b600082825260208201905092915050565b6000611f6d82612056565b9150611f7883612056565b9250827fffffffffffffffffffffffffffffffffffffffffffffffffffffffffffffffff03821115611fad57611fac61214e565b5b828201905092915050565b6000611fc382612056565b9150611fce83612056565b925082821015611fe157611fe061214e565b5b828203905092915050565b6000611ff782612036565b9050919050565b60008115159050919050565b60007fffffffff0000000000000000000000000000000000000000000000000000000082169050919050565b600073ffffffffffffffffffffffffffffffffffffffff82169050919050565b6000819050919050565b82818337600083830152505050565b60005b8381101561208d578082015181840152602081019050612072565b8381111561209c576000848401525b50505050565b600060028204905060018216806120ba57607f821691505b602082108114156120ce576120cd61217d565b5b50919050565b6120dd826121db565b810181811067ffffffffffffffff821117156120fc576120fb6121ac565b5b80604052505050565b600061211082612056565b91507fffffffffffffffffffffffffffffffffffffffffffffffffffffffffffffffff8214156121435761214261214e565b5b600182019050919050565b7f4e487b7100000000000000000000000000000000000000000000000000000000600052601160045260246000fd5b7f4e487b7100000000000000000000000000000000000000000000000000000000600052602260045260246000fd5b7f4e487b7100000000000000000000000000000000000000000000000000000000600052604160045260246000fd5b6000601f19601f8301169050919050565b7f4552433732313a207472616e7366657220746f206e6f6e20455243373231526560008201527f63656976657220696d706c656d656e7465720000000000000000000000000000602082015250565b7f4552433732313a207472616e736665722066726f6d20696e636f72726563742060008201527f6f776e6572000000000000000000000000000000000000000000000000000000602082015250565b7f4552433732313a20746f6b656e20616c7265616479206d696e74656400000000600082015250565b7f4552433732313a207472616e7366657220746f20746865207a65726f2061646460008201527f7265737300000000000000000000000000000000000000000000000000000000602082015250565b7f4552433732313a20617070726f766520746f2063616c6c657200000000000000600082015250565b7f4552433732314d65746164617461203a2055524920736574206f66206e6f6e6560008201527f78697374656e7420746f6b656e00000000000000000000000000000000000000602082015250565b7f4552433732313a2061646472657373207a65726f206973206e6f74206120766160008201527f6c6964206f776e65720000000000000000000000000000000000000000000000602082015250565b7f4552433732313a20617070726f76652063616c6c6572206973206e6f7420746f60008201527f6b656e206f776e6572206e6f7220617070726f76656420666f7220616c6c0000602082015250565b7f4552433732313a206d696e7420746f20746865207a65726f2061646472657373600082015250565b7f4552433732313a20696e76616c696420746f6b656e2049440000000000000000600082015250565b7f4552433732313a20617070726f76616c20746f2063757272656e74206f776e6560008201527f7200000000000000000000000000000000000000000000000000000000000000602082015250565b7f4552433732313a2063616c6c6572206973206e6f7420746f6b656e206f776e6560008201527f72206e6f7220617070726f766564000000000000000000000000000000000000602082015250565b61251181611fec565b811461251c57600080fd5b50565b61252881611ffe565b811461253357600080fd5b50565b61253f8161200a565b811461254a57600080fd5b50565b61255681612056565b811461256157600080fd5b5056fea2646970667358221220043589c2ccdf0f6d7ba0c5927b08a75ceffb2ca6a287bf1077fb7230db3058e364736f6c63430008010033",
	"linkReferences": {},
	"deployedLinkReferences": {}
}