{
  "_format": "hh-sol-artifact-1",
  "contractName": "Completion",
  "sourceName": "contracts/Completion.sol",
  "abi": [
    {
      "inputs": [
        {
          "internalType": "string",
          "name": "name",
          "type": "string"
        },
        {
          "internalType": "string",
          "name": "symbol",
          "type": "string"
        }
      ],
      "stateMutability": "nonpayable",
      "type": "constructor"
    },
    {
      "anonymous": false,
      "inputs": [
        {
          "indexed": true,
          "internalType": "address",
          "name": "owner",
          "type": "address"
        },
        {
          "indexed": true,
          "internalType": "address",
          "name": "approved",
          "type": "address"
        },
        {
          "indexed": true,
          "internalType": "uint256",
          "name": "tokenId",
          "type": "uint256"
        }
      ],
      "name": "Approval",
      "type": "event"
    },
    {
      "anonymous": false,
      "inputs": [
        {
          "indexed": true,
          "internalType": "address",
          "name": "owner",
          "type": "address"
        },
        {
          "indexed": true,
          "internalType": "address",
          "name": "operator",
          "type": "address"
        },
        {
          "indexed": false,
          "internalType": "bool",
          "name": "approved",
          "type": "bool"
        }
      ],
      "name": "ApprovalForAll",
      "type": "event"
    },
    {
      "anonymous": false,
      "inputs": [
        {
          "indexed": true,
          "internalType": "address",
          "name": "from",
          "type": "address"
        },
        {
          "indexed": true,
          "internalType": "address",
          "name": "to",
          "type": "address"
        },
        {
          "indexed": true,
          "internalType": "uint256",
          "name": "tokenId",
          "type": "uint256"
        }
      ],
      "name": "Transfer",
      "type": "event"
    },
    {
      "inputs": [
        {
          "internalType": "address",
          "name": "to",
          "type": "address"
        },
        {
          "internalType": "uint256",
          "name": "tokenId",
          "type": "uint256"
        }
      ],
      "name": "approve",
      "outputs": [],
      "stateMutability": "nonpayable",
      "type": "function"
    },
    {
      "inputs": [
        {
          "internalType": "address",
          "name": "owner",
          "type": "address"
        }
      ],
      "name": "balanceOf",
      "outputs": [
        {
          "internalType": "uint256",
          "name": "",
          "type": "uint256"
        }
      ],
      "stateMutability": "view",
      "type": "function"
    },
    {
      "inputs": [
        {
          "internalType": "uint256",
          "name": "tokenId",
          "type": "uint256"
        }
      ],
      "name": "getApproved",
      "outputs": [
        {
          "internalType": "address",
          "name": "",
          "type": "address"
        }
      ],
      "stateMutability": "view",
      "type": "function"
    },
    {
      "inputs": [
        {
          "internalType": "address",
          "name": "owner",
          "type": "address"
        },
        {
          "internalType": "address",
          "name": "operator",
          "type": "address"
        }
      ],
      "name": "isApprovedForAll",
      "outputs": [
        {
          "internalType": "bool",
          "name": "",
          "type": "bool"
        }
      ],
      "stateMutability": "view",
      "type": "function"
    },
    {
      "inputs": [
        {
          "internalType": "string",
          "name": "_tokenURI",
          "type": "string"
        }
      ],
      "name": "mint",
      "outputs": [],
      "stateMutability": "nonpayable",
      "type": "function"
    },
    {
      "inputs": [],
      "name": "name",
      "outputs": [
        {
          "internalType": "string",
          "name": "",
          "type": "string"
        }
      ],
      "stateMutability": "view",
      "type": "function"
    },
    {
      "inputs": [
        {
          "internalType": "uint256",
          "name": "tokenId",
          "type": "uint256"
        }
      ],
      "name": "ownerOf",
      "outputs": [
        {
          "internalType": "address",
          "name": "",
          "type": "address"
        }
      ],
      "stateMutability": "view",
      "type": "function"
    },
    {
      "inputs": [
        {
          "internalType": "address",
          "name": "from",
          "type": "address"
        },
        {
          "internalType": "address",
          "name": "to",
          "type": "address"
        },
        {
          "internalType": "uint256",
          "name": "tokenId",
          "type": "uint256"
        }
      ],
      "name": "safeTransferFrom",
      "outputs": [],
      "stateMutability": "nonpayable",
      "type": "function"
    },
    {
      "inputs": [
        {
          "internalType": "address",
          "name": "from",
          "type": "address"
        },
        {
          "internalType": "address",
          "name": "to",
          "type": "address"
        },
        {
          "internalType": "uint256",
          "name": "tokenId",
          "type": "uint256"
        },
        {
          "internalType": "bytes",
          "name": "data",
          "type": "bytes"
        }
      ],
      "name": "safeTransferFrom",
      "outputs": [],
      "stateMutability": "nonpayable",
      "type": "function"
    },
    {
      "inputs": [
        {
          "internalType": "address",
          "name": "operator",
          "type": "address"
        },
        {
          "internalType": "bool",
          "name": "approved",
          "type": "bool"
        }
      ],
      "name": "setApprovalForAll",
      "outputs": [],
      "stateMutability": "nonpayable",
      "type": "function"
    },
    {
      "inputs": [
        {
          "internalType": "bytes4",
          "name": "interfaceId",
          "type": "bytes4"
        }
      ],
      "name": "supportsInterface",
      "outputs": [
        {
          "internalType": "bool",
          "name": "",
          "type": "bool"
        }
      ],
      "stateMutability": "view",
      "type": "function"
    },
    {
      "inputs": [],
      "name": "symbol",
      "outputs": [
        {
          "internalType": "string",
          "name": "",
          "type": "string"
        }
      ],
      "stateMutability": "view",
      "type": "function"
    },
    {
      "inputs": [],
      "name": "tokenCounter",
      "outputs": [
        {
          "internalType": "uint256",
          "name": "",
          "type": "uint256"
        }
      ],
      "stateMutability": "view",
      "type": "function"
    },
    {
      "inputs": [
        {
          "internalType": "uint256",
          "name": "_tokenId",
          "type": "uint256"
        }
      ],
      "name": "tokenURI",
      "outputs": [
        {
          "internalType": "string",
          "name": "",
          "type": "string"
        }
      ],
      "stateMutability": "view",
      "type": "function"
    },
    {
      "inputs": [
        {
          "internalType": "address",
          "name": "from",
          "type": "address"
        },
        {
          "internalType": "address",
          "name": "to",
          "type": "address"
        },
        {
          "internalType": "uint256",
          "name": "tokenId",
          "type": "uint256"
        }
      ],
      "name": "transferFrom",
      "outputs": [],
      "stateMutability": "nonpayable",
      "type": "function"
    }
  ],
  "bytecode": "0x60806040523480156200001157600080fd5b506040516200283e3803806200283e83398181016040528101906200003791906200019f565b81818160009080519060200190620000519291906200007d565b5080600190805190602001906200006a9291906200007d565b5050506000600681905550505062000343565b8280546200008b90620002af565b90600052602060002090601f016020900481019282620000af5760008555620000fb565b82601f10620000ca57805160ff1916838001178555620000fb565b82800160010185558215620000fb579182015b82811115620000fa578251825591602001919060010190620000dd565b5b5090506200010a91906200010e565b5090565b5b80821115620001295760008160009055506001016200010f565b5090565b6000620001446200013e8462000246565b62000212565b9050828152602081018484840111156200015d57600080fd5b6200016a84828562000279565b509392505050565b600082601f8301126200018457600080fd5b8151620001968482602086016200012d565b91505092915050565b60008060408385031215620001b357600080fd5b600083015167ffffffffffffffff811115620001ce57600080fd5b620001dc8582860162000172565b925050602083015167ffffffffffffffff811115620001fa57600080fd5b620002088582860162000172565b9150509250929050565b6000604051905081810181811067ffffffffffffffff821117156200023c576200023b62000314565b5b8060405250919050565b600067ffffffffffffffff82111562000264576200026362000314565b5b601f19601f8301169050602081019050919050565b60005b83811015620002995780820151818401526020810190506200027c565b83811115620002a9576000848401525b50505050565b60006002820490506001821680620002c857607f821691505b60208210811415620002df57620002de620002e5565b5b50919050565b7f4e487b7100000000000000000000000000000000000000000000000000000000600052602260045260246000fd5b7f4e487b7100000000000000000000000000000000000000000000000000000000600052604160045260246000fd5b6124eb80620003536000396000f3fe608060405234801561001057600080fd5b50600436106100f55760003560e01c806370a0823111610097578063c87b56dd11610066578063c87b56dd14610282578063d082e381146102b2578063d85d3d27146102d0578063e985e9c5146102ec576100f5565b806370a08231146101fc57806395d89b411461022c578063a22cb4651461024a578063b88d4fde14610266576100f5565b8063095ea7b3116100d3578063095ea7b31461017857806323b872dd1461019457806342842e0e146101b05780636352211e146101cc576100f5565b806301ffc9a7146100fa57806306fdde031461012a578063081812fc14610148575b600080fd5b610114600480360381019061010f919061196d565b61031c565b6040516101219190611f5f565b60405180910390f35b6101326103fe565b60405161013f9190611f7a565b60405180910390f35b610162600480360381019061015d9190611a00565b610490565b60405161016f9190611ef8565b60405180910390f35b610192600480360381019061018d9190611931565b6104d6565b005b6101ae60048036038101906101a9919061182b565b6105ee565b005b6101ca60048036038101906101c5919061182b565b61064e565b005b6101e660048036038101906101e19190611a00565b61066e565b6040516101f39190611ef8565b60405180910390f35b610216600480360381019061021191906117c6565b610720565b604051610223919061211c565b60405180910390f35b6102346107d8565b6040516102419190611f7a565b60405180910390f35b610264600480360381019061025f91906118f5565b61086a565b005b610280600480360381019061027b919061187a565b610880565b005b61029c60048036038101906102979190611a00565b6108e2565b6040516102a99190611f7a565b60405180910390f35b6102ba6109cf565b6040516102c7919061211c565b60405180910390f35b6102ea60048036038101906102e591906119bf565b6109d5565b005b610306600480360381019061030191906117ef565b610a08565b6040516103139190611f5f565b60405180910390f35b60007f80ac58cd000000000000000000000000000000000000000000000000000000007bffffffffffffffffffffffffffffffffffffffffffffffffffffffff1916827bffffffffffffffffffffffffffffffffffffffffffffffffffffffff191614806103e757507f5b5e139f000000000000000000000000000000000000000000000000000000007bffffffffffffffffffffffffffffffffffffffffffffffffffffffff1916827bffffffffffffffffffffffffffffffffffffffffffffffffffffffff1916145b806103f757506103f682610a9c565b5b9050919050565b60606000805461040d90612340565b80601f016020809104026020016040519081016040528092919081815260200182805461043990612340565b80156104865780601f1061045b57610100808354040283529160200191610486565b820191906000526020600020905b81548152906001019060200180831161046957829003601f168201915b5050505050905090565b600061049b82610b06565b6004600083815260200190815260200160002060009054906101000a900473ffffffffffffffffffffffffffffffffffffffff169050919050565b60006104e18261066e565b90508073ffffffffffffffffffffffffffffffffffffffff168373ffffffffffffffffffffffffffffffffffffffff161415610552576040517f08c379a0000000000000000000000000000000000000000000000000000000008152600401610549906120dc565b60405180910390fd5b8073ffffffffffffffffffffffffffffffffffffffff16610571610b51565b73ffffffffffffffffffffffffffffffffffffffff1614806105a0575061059f8161059a610b51565b610a08565b5b6105df576040517f08c379a00000000000000000000000000000000000000000000000000000000081526004016105d69061207c565b60405180910390fd5b6105e98383610b59565b505050565b6105ff6105f9610b51565b82610c12565b61063e576040517f08c379a0000000000000000000000000000000000000000000000000000000008152600401610635906120fc565b60405180910390fd5b610649838383610ca7565b505050565b61066983838360405180602001604052806000815250610880565b505050565b6000806002600084815260200190815260200160002060009054906101000a900473ffffffffffffffffffffffffffffffffffffffff169050600073ffffffffffffffffffffffffffffffffffffffff168173ffffffffffffffffffffffffffffffffffffffff161415610717576040517f08c379a000000000000000000000000000000000000000000000000000000000815260040161070e906120bc565b60405180910390fd5b80915050919050565b60008073ffffffffffffffffffffffffffffffffffffffff168273ffffffffffffffffffffffffffffffffffffffff161415610791576040517f08c379a00000000000000000000000000000000000000000000000000000000081526004016107889061205c565b60405180910390fd5b600360008373ffffffffffffffffffffffffffffffffffffffff1673ffffffffffffffffffffffffffffffffffffffff168152602001908152602001600020549050919050565b6060600180546107e790612340565b80601f016020809104026020016040519081016040528092919081815260200182805461081390612340565b80156108605780601f1061083557610100808354040283529160200191610860565b820191906000526020600020905b81548152906001019060200180831161084357829003601f168201915b5050505050905090565b61087c610875610b51565b8383610f0e565b5050565b61089161088b610b51565b83610c12565b6108d0576040517f08c379a00000000000000000000000000000000000000000000000000000000081526004016108c7906120fc565b60405180910390fd5b6108dc8484848461107b565b50505050565b60606108ed826110d7565b61092c576040517f08c379a00000000000000000000000000000000000000000000000000000000081526004016109239061203c565b60405180910390fd5b60076000838152602001908152602001600020805461094a90612340565b80601f016020809104026020016040519081016040528092919081815260200182805461097690612340565b80156109c35780601f10610998576101008083540402835291602001916109c3565b820191906000526020600020905b8154815290600101906020018083116109a657829003601f168201915b50505050509050919050565b60065481565b6109e133600654611143565b6109ed60065482611161565b60066000815480929190610a0090612372565b919050555050565b6000600560008473ffffffffffffffffffffffffffffffffffffffff1673ffffffffffffffffffffffffffffffffffffffff16815260200190815260200160002060008373ffffffffffffffffffffffffffffffffffffffff1673ffffffffffffffffffffffffffffffffffffffff16815260200190815260200160002060009054906101000a900460ff16905092915050565b60007f01ffc9a7000000000000000000000000000000000000000000000000000000007bffffffffffffffffffffffffffffffffffffffffffffffffffffffff1916827bffffffffffffffffffffffffffffffffffffffffffffffffffffffff1916149050919050565b610b0f816110d7565b610b4e576040517f08c379a0000000000000000000000000000000000000000000000000000000008152600401610b45906120bc565b60405180910390fd5b50565b600033905090565b816004600083815260200190815260200160002060006101000a81548173ffffffffffffffffffffffffffffffffffffffff021916908373ffffffffffffffffffffffffffffffffffffffff160217905550808273ffffffffffffffffffffffffffffffffffffffff16610bcc8361066e565b73ffffffffffffffffffffffffffffffffffffffff167f8c5be1e5ebec7d5bd14f71427d1e84f3dd0314c0f7b2291e5b200ac8c7c3b92560405160405180910390a45050565b600080610c1e8361066e565b90508073ffffffffffffffffffffffffffffffffffffffff168473ffffffffffffffffffffffffffffffffffffffff161480610c605750610c5f8185610a08565b5b80610c9e57508373ffffffffffffffffffffffffffffffffffffffff16610c8684610490565b73ffffffffffffffffffffffffffffffffffffffff16145b91505092915050565b8273ffffffffffffffffffffffffffffffffffffffff16610cc78261066e565b73ffffffffffffffffffffffffffffffffffffffff1614610d1d576040517f08c379a0000000000000000000000000000000000000000000000000000000008152600401610d1490611fbc565b60405180910390fd5b600073ffffffffffffffffffffffffffffffffffffffff168273ffffffffffffffffffffffffffffffffffffffff161415610d8d576040517f08c379a0000000000000000000000000000000000000000000000000000000008152600401610d8490611ffc565b60405180910390fd5b610d988383836111d5565b610da3600082610b59565b6001600360008573ffffffffffffffffffffffffffffffffffffffff1673ffffffffffffffffffffffffffffffffffffffff1681526020019081526020016000206000828254610df39190612256565b925050819055506001600360008473ffffffffffffffffffffffffffffffffffffffff1673ffffffffffffffffffffffffffffffffffffffff1681526020019081526020016000206000828254610e4a9190612200565b92505081905550816002600083815260200190815260200160002060006101000a81548173ffffffffffffffffffffffffffffffffffffffff021916908373ffffffffffffffffffffffffffffffffffffffff160217905550808273ffffffffffffffffffffffffffffffffffffffff168473ffffffffffffffffffffffffffffffffffffffff167fddf252ad1be2c89b69c2b068fc378daa952ba7f163c4a11628f55a4df523b3ef60405160405180910390a4610f098383836111da565b505050565b8173ffffffffffffffffffffffffffffffffffffffff168373ffffffffffffffffffffffffffffffffffffffff161415610f7d576040517f08c379a0000000000000000000000000000000000000000000000000000000008152600401610f749061201c565b60405180910390fd5b80600560008573ffffffffffffffffffffffffffffffffffffffff1673ffffffffffffffffffffffffffffffffffffffff16815260200190815260200160002060008473ffffffffffffffffffffffffffffffffffffffff1673ffffffffffffffffffffffffffffffffffffffff16815260200190815260200160002060006101000a81548160ff0219169083151502179055508173ffffffffffffffffffffffffffffffffffffffff168373ffffffffffffffffffffffffffffffffffffffff167f17307eab39ab6107e8899845ad3d59bd9653f200f220920489ca2b5937696c318360405161106e9190611f5f565b60405180910390a3505050565b611086848484610ca7565b611092848484846111df565b6110d1576040517f08c379a00000000000000000000000000000000000000000000000000000000081526004016110c890611f9c565b60405180910390fd5b50505050565b60008073ffffffffffffffffffffffffffffffffffffffff166002600084815260200190815260200160002060009054906101000a900473ffffffffffffffffffffffffffffffffffffffff1673ffffffffffffffffffffffffffffffffffffffff1614159050919050565b61115d828260405180602001604052806000815250611376565b5050565b61116a826110d7565b6111a9576040517f08c379a00000000000000000000000000000000000000000000000000000000081526004016111a09061203c565b60405180910390fd5b806007600084815260200190815260200160002090805190602001906111d09291906115ea565b505050565b505050565b505050565b60006112008473ffffffffffffffffffffffffffffffffffffffff166113d1565b15611369578373ffffffffffffffffffffffffffffffffffffffff1663150b7a02611229610b51565b8786866040518563ffffffff1660e01b815260040161124b9493929190611f13565b602060405180830381600087803b15801561126557600080fd5b505af192505050801561129657506040513d601f19601f820116820180604052508101906112939190611996565b60015b611319573d80600081146112c6576040519150601f19603f3d011682016040523d82523d6000602084013e6112cb565b606091505b50600081511415611311576040517f08c379a000000000000000000000000000000000000000000000000000000000815260040161130890611f9c565b60405180910390fd5b805181602001fd5b63150b7a0260e01b7bffffffffffffffffffffffffffffffffffffffffffffffffffffffff1916817bffffffffffffffffffffffffffffffffffffffffffffffffffffffff19161491505061136e565b600190505b949350505050565b6113808383611410565b61138d60008484846111df565b6113cc576040517f08c379a00000000000000000000000000000000000000000000000000000000081526004016113c390611f9c565b60405180910390fd5b505050565b6000808273ffffffffffffffffffffffffffffffffffffffff16803b806020016040519081016040528181526000908060200190933c51119050919050565b600073ffffffffffffffffffffffffffffffffffffffff168273ffffffffffffffffffffffffffffffffffffffff161415611480576040517f08c379a00000000000000000000000000000000000000000000000000000000081526004016114779061209c565b60405180910390fd5b611489816110d7565b156114c9576040517f08c379a00000000000000000000000000000000000000000000000000000000081526004016114c090611fdc565b60405180910390fd5b6114d5600083836111d5565b6001600360008473ffffffffffffffffffffffffffffffffffffffff1673ffffffffffffffffffffffffffffffffffffffff16815260200190815260200160002060008282546115259190612200565b92505081905550816002600083815260200190815260200160002060006101000a81548173ffffffffffffffffffffffffffffffffffffffff021916908373ffffffffffffffffffffffffffffffffffffffff160217905550808273ffffffffffffffffffffffffffffffffffffffff16600073ffffffffffffffffffffffffffffffffffffffff167fddf252ad1be2c89b69c2b068fc378daa952ba7f163c4a11628f55a4df523b3ef60405160405180910390a46115e6600083836111da565b5050565b8280546115f690612340565b90600052602060002090601f016020900481019282611618576000855561165f565b82601f1061163157805160ff191683800117855561165f565b8280016001018555821561165f579182015b8281111561165e578251825591602001919060010190611643565b5b50905061166c9190611670565b5090565b5b80821115611689576000816000905550600101611671565b5090565b60006116a061169b84612168565b612137565b9050828152602081018484840111156116b857600080fd5b6116c38482856122fe565b509392505050565b60006116de6116d984612198565b612137565b9050828152602081018484840111156116f657600080fd5b6117018482856122fe565b509392505050565b60008135905061171881612459565b92915050565b60008135905061172d81612470565b92915050565b60008135905061174281612487565b92915050565b60008151905061175781612487565b92915050565b600082601f83011261176e57600080fd5b813561177e84826020860161168d565b91505092915050565b600082601f83011261179857600080fd5b81356117a88482602086016116cb565b91505092915050565b6000813590506117c08161249e565b92915050565b6000602082840312156117d857600080fd5b60006117e684828501611709565b91505092915050565b6000806040838503121561180257600080fd5b600061181085828601611709565b925050602061182185828601611709565b9150509250929050565b60008060006060848603121561184057600080fd5b600061184e86828701611709565b935050602061185f86828701611709565b9250506040611870868287016117b1565b9150509250925092565b6000806000806080858703121561189057600080fd5b600061189e87828801611709565b94505060206118af87828801611709565b93505060406118c0878288016117b1565b925050606085013567ffffffffffffffff8111156118dd57600080fd5b6118e98782880161175d565b91505092959194509250565b6000806040838503121561190857600080fd5b600061191685828601611709565b92505060206119278582860161171e565b9150509250929050565b6000806040838503121561194457600080fd5b600061195285828601611709565b9250506020611963858286016117b1565b9150509250929050565b60006020828403121561197f57600080fd5b600061198d84828501611733565b91505092915050565b6000602082840312156119a857600080fd5b60006119b684828501611748565b91505092915050565b6000602082840312156119d157600080fd5b600082013567ffffffffffffffff8111156119eb57600080fd5b6119f784828501611787565b91505092915050565b600060208284031215611a1257600080fd5b6000611a20848285016117b1565b91505092915050565b611a328161228a565b82525050565b611a418161229c565b82525050565b6000611a52826121c8565b611a5c81856121de565b9350611a6c81856020860161230d565b611a7581612448565b840191505092915050565b6000611a8b826121d3565b611a9581856121ef565b9350611aa581856020860161230d565b611aae81612448565b840191505092915050565b6000611ac66032836121ef565b91507f4552433732313a207472616e7366657220746f206e6f6e20455243373231526560008301527f63656976657220696d706c656d656e74657200000000000000000000000000006020830152604082019050919050565b6000611b2c6025836121ef565b91507f4552433732313a207472616e736665722066726f6d20696e636f72726563742060008301527f6f776e65720000000000000000000000000000000000000000000000000000006020830152604082019050919050565b6000611b92601c836121ef565b91507f4552433732313a20746f6b656e20616c7265616479206d696e746564000000006000830152602082019050919050565b6000611bd26024836121ef565b91507f4552433732313a207472616e7366657220746f20746865207a65726f2061646460008301527f72657373000000000000000000000000000000000000000000000000000000006020830152604082019050919050565b6000611c386019836121ef565b91507f4552433732313a20617070726f766520746f2063616c6c6572000000000000006000830152602082019050919050565b6000611c78602d836121ef565b91507f4552433732314d65746164617461203a2055524920736574206f66206e6f6e6560008301527f78697374656e7420746f6b656e000000000000000000000000000000000000006020830152604082019050919050565b6000611cde6029836121ef565b91507f4552433732313a2061646472657373207a65726f206973206e6f74206120766160008301527f6c6964206f776e657200000000000000000000000000000000000000000000006020830152604082019050919050565b6000611d44603e836121ef565b91507f4552433732313a20617070726f76652063616c6c6572206973206e6f7420746f60008301527f6b656e206f776e6572206e6f7220617070726f76656420666f7220616c6c00006020830152604082019050919050565b6000611daa6020836121ef565b91507f4552433732313a206d696e7420746f20746865207a65726f20616464726573736000830152602082019050919050565b6000611dea6018836121ef565b91507f4552433732313a20696e76616c696420746f6b656e20494400000000000000006000830152602082019050919050565b6000611e2a6021836121ef565b91507f4552433732313a20617070726f76616c20746f2063757272656e74206f776e6560008301527f72000000000000000000000000000000000000000000000000000000000000006020830152604082019050919050565b6000611e90602e836121ef565b91507f4552433732313a2063616c6c6572206973206e6f7420746f6b656e206f776e6560008301527f72206e6f7220617070726f7665640000000000000000000000000000000000006020830152604082019050919050565b611ef2816122f4565b82525050565b6000602082019050611f0d6000830184611a29565b92915050565b6000608082019050611f286000830187611a29565b611f356020830186611a29565b611f426040830185611ee9565b8181036060830152611f548184611a47565b905095945050505050565b6000602082019050611f746000830184611a38565b92915050565b60006020820190508181036000830152611f948184611a80565b905092915050565b60006020820190508181036000830152611fb581611ab9565b9050919050565b60006020820190508181036000830152611fd581611b1f565b9050919050565b60006020820190508181036000830152611ff581611b85565b9050919050565b6000602082019050818103600083015261201581611bc5565b9050919050565b6000602082019050818103600083015261203581611c2b565b9050919050565b6000602082019050818103600083015261205581611c6b565b9050919050565b6000602082019050818103600083015261207581611cd1565b9050919050565b6000602082019050818103600083015261209581611d37565b9050919050565b600060208201905081810360008301526120b581611d9d565b9050919050565b600060208201905081810360008301526120d581611ddd565b9050919050565b600060208201905081810360008301526120f581611e1d565b9050919050565b6000602082019050818103600083015261211581611e83565b9050919050565b60006020820190506121316000830184611ee9565b92915050565b6000604051905081810181811067ffffffffffffffff8211171561215e5761215d612419565b5b8060405250919050565b600067ffffffffffffffff82111561218357612182612419565b5b601f19601f8301169050602081019050919050565b600067ffffffffffffffff8211156121b3576121b2612419565b5b601f19601f8301169050602081019050919050565b600081519050919050565b600081519050919050565b600082825260208201905092915050565b600082825260208201905092915050565b600061220b826122f4565b9150612216836122f4565b9250827fffffffffffffffffffffffffffffffffffffffffffffffffffffffffffffffff0382111561224b5761224a6123bb565b5b828201905092915050565b6000612261826122f4565b915061226c836122f4565b92508282101561227f5761227e6123bb565b5b828203905092915050565b6000612295826122d4565b9050919050565b60008115159050919050565b60007fffffffff0000000000000000000000000000000000000000000000000000000082169050919050565b600073ffffffffffffffffffffffffffffffffffffffff82169050919050565b6000819050919050565b82818337600083830152505050565b60005b8381101561232b578082015181840152602081019050612310565b8381111561233a576000848401525b50505050565b6000600282049050600182168061235857607f821691505b6020821081141561236c5761236b6123ea565b5b50919050565b600061237d826122f4565b91507fffffffffffffffffffffffffffffffffffffffffffffffffffffffffffffffff8214156123b0576123af6123bb565b5b600182019050919050565b7f4e487b7100000000000000000000000000000000000000000000000000000000600052601160045260246000fd5b7f4e487b7100000000000000000000000000000000000000000000000000000000600052602260045260246000fd5b7f4e487b7100000000000000000000000000000000000000000000000000000000600052604160045260246000fd5b6000601f19601f8301169050919050565b6124628161228a565b811461246d57600080fd5b50565b6124798161229c565b811461248457600080fd5b50565b612490816122a8565b811461249b57600080fd5b50565b6124a7816122f4565b81146124b257600080fd5b5056fea26469706673582212202fb0a3f3418ea50bbbe9380e973efe04af59922e958b8d8aa783eea5b5c11d3c64736f6c63430008000033",
  "linkReferences": {},
  "deployedLinkReferences": {}
}