{
  "_format": "hh-sol-artifact-1",
  "contractName": "Completion",
  "sourceName": "contracts/Completion.sol",
  "abi": [
    {
      "inputs": [
        {
          "internalType": "string",
          "name": "name",
          "type": "string"
        },
        {
          "internalType": "string",
          "name": "symbol",
          "type": "string"
        }
      ],
      "stateMutability": "nonpayable",
      "type": "constructor"
    },
    {
      "anonymous": false,
      "inputs": [
        {
          "indexed": true,
          "internalType": "address",
          "name": "owner",
          "type": "address"
        },
        {
          "indexed": true,
          "internalType": "address",
          "name": "approved",
          "type": "address"
        },
        {
          "indexed": true,
          "internalType": "uint256",
          "name": "tokenId",
          "type": "uint256"
        }
      ],
      "name": "Approval",
      "type": "event"
    },
    {
      "anonymous": false,
      "inputs": [
        {
          "indexed": true,
          "internalType": "address",
          "name": "owner",
          "type": "address"
        },
        {
          "indexed": true,
          "internalType": "address",
          "name": "operator",
          "type": "address"
        },
        {
          "indexed": false,
          "internalType": "bool",
          "name": "approved",
          "type": "bool"
        }
      ],
      "name": "ApprovalForAll",
      "type": "event"
    },
    {
      "anonymous": false,
      "inputs": [
        {
          "indexed": true,
          "internalType": "address",
          "name": "from",
          "type": "address"
        },
        {
          "indexed": true,
          "internalType": "address",
          "name": "to",
          "type": "address"
        },
        {
          "indexed": true,
          "internalType": "uint256",
          "name": "tokenId",
          "type": "uint256"
        }
      ],
      "name": "Transfer",
      "type": "event"
    },
    {
      "inputs": [
        {
          "internalType": "address",
          "name": "to",
          "type": "address"
        },
        {
          "internalType": "uint256",
          "name": "tokenId",
          "type": "uint256"
        }
      ],
      "name": "approve",
      "outputs": [],
      "stateMutability": "nonpayable",
      "type": "function"
    },
    {
      "inputs": [
        {
          "internalType": "address",
          "name": "owner",
          "type": "address"
        }
      ],
      "name": "balanceOf",
      "outputs": [
        {
          "internalType": "uint256",
          "name": "",
          "type": "uint256"
        }
      ],
      "stateMutability": "view",
      "type": "function"
    },
    {
      "inputs": [
        {
          "internalType": "uint256",
          "name": "tokenId",
          "type": "uint256"
        }
      ],
      "name": "getApproved",
      "outputs": [
        {
          "internalType": "address",
          "name": "",
          "type": "address"
        }
      ],
      "stateMutability": "view",
      "type": "function"
    },
    {
      "inputs": [
        {
          "internalType": "address",
          "name": "owner",
          "type": "address"
        },
        {
          "internalType": "address",
          "name": "operator",
          "type": "address"
        }
      ],
      "name": "isApprovedForAll",
      "outputs": [
        {
          "internalType": "bool",
          "name": "",
          "type": "bool"
        }
      ],
      "stateMutability": "view",
      "type": "function"
    },
    {
      "inputs": [
        {
          "internalType": "string",
          "name": "_tokenURI",
          "type": "string"
        }
      ],
      "name": "mint",
      "outputs": [],
      "stateMutability": "nonpayable",
      "type": "function"
    },
    {
      "inputs": [],
      "name": "name",
      "outputs": [
        {
          "internalType": "string",
          "name": "",
          "type": "string"
        }
      ],
      "stateMutability": "view",
      "type": "function"
    },
    {
      "inputs": [
        {
          "internalType": "uint256",
          "name": "tokenId",
          "type": "uint256"
        }
      ],
      "name": "ownerOf",
      "outputs": [
        {
          "internalType": "address",
          "name": "",
          "type": "address"
        }
      ],
      "stateMutability": "view",
      "type": "function"
    },
    {
      "inputs": [
        {
          "internalType": "address",
          "name": "from",
          "type": "address"
        },
        {
          "internalType": "address",
          "name": "to",
          "type": "address"
        },
        {
          "internalType": "uint256",
          "name": "tokenId",
          "type": "uint256"
        }
      ],
      "name": "safeTransferFrom",
      "outputs": [],
      "stateMutability": "nonpayable",
      "type": "function"
    },
    {
      "inputs": [
        {
          "internalType": "address",
          "name": "from",
          "type": "address"
        },
        {
          "internalType": "address",
          "name": "to",
          "type": "address"
        },
        {
          "internalType": "uint256",
          "name": "tokenId",
          "type": "uint256"
        },
        {
          "internalType": "bytes",
          "name": "data",
          "type": "bytes"
        }
      ],
      "name": "safeTransferFrom",
      "outputs": [],
      "stateMutability": "nonpayable",
      "type": "function"
    },
    {
      "inputs": [
        {
          "internalType": "address",
          "name": "operator",
          "type": "address"
        },
        {
          "internalType": "bool",
          "name": "approved",
          "type": "bool"
        }
      ],
      "name": "setApprovalForAll",
      "outputs": [],
      "stateMutability": "nonpayable",
      "type": "function"
    },
    {
      "inputs": [
        {
          "internalType": "bytes4",
          "name": "interfaceId",
          "type": "bytes4"
        }
      ],
      "name": "supportsInterface",
      "outputs": [
        {
          "internalType": "bool",
          "name": "",
          "type": "bool"
        }
      ],
      "stateMutability": "view",
      "type": "function"
    },
    {
      "inputs": [],
      "name": "symbol",
      "outputs": [
        {
          "internalType": "string",
          "name": "",
          "type": "string"
        }
      ],
      "stateMutability": "view",
      "type": "function"
    },
    {
      "inputs": [],
      "name": "tokenCounter",
      "outputs": [
        {
          "internalType": "uint256",
          "name": "",
          "type": "uint256"
        }
      ],
      "stateMutability": "view",
      "type": "function"
    },
    {
      "inputs": [
        {
          "internalType": "uint256",
          "name": "_tokenId",
          "type": "uint256"
        }
      ],
      "name": "tokenURI",
      "outputs": [
        {
          "internalType": "string",
          "name": "",
          "type": "string"
        }
      ],
      "stateMutability": "view",
      "type": "function"
    },
    {
      "inputs": [
        {
          "internalType": "address",
          "name": "from",
          "type": "address"
        },
        {
          "internalType": "address",
          "name": "to",
          "type": "address"
        },
        {
          "internalType": "uint256",
          "name": "tokenId",
          "type": "uint256"
        }
      ],
      "name": "transferFrom",
      "outputs": [],
      "stateMutability": "nonpayable",
      "type": "function"
    }
  ],
  "bytecode": "0x60806040523480156200001157600080fd5b50604051620029183803806200291883398181016040528101906200003791906200019f565b81818160009080519060200190620000519291906200007d565b5080600190805190602001906200006a9291906200007d565b5050506000600681905550505062000382565b8280546200008b90620002a7565b90600052602060002090601f016020900481019282620000af5760008555620000fb565b82601f10620000ca57805160ff1916838001178555620000fb565b82800160010185558215620000fb579182015b82811115620000fa578251825591602001919060010190620000dd565b5b5090506200010a91906200010e565b5090565b5b80821115620001295760008160009055506001016200010f565b5090565b6000620001446200013e846200023b565b62000212565b9050828152602081018484840111156200015d57600080fd5b6200016a84828562000271565b509392505050565b600082601f8301126200018457600080fd5b8151620001968482602086016200012d565b91505092915050565b60008060408385031215620001b357600080fd5b600083015167ffffffffffffffff811115620001ce57600080fd5b620001dc8582860162000172565b925050602083015167ffffffffffffffff811115620001fa57600080fd5b620002088582860162000172565b9150509250929050565b60006200021e62000231565b90506200022c8282620002dd565b919050565b6000604051905090565b600067ffffffffffffffff82111562000259576200025862000342565b5b620002648262000371565b9050602081019050919050565b60005b838110156200029157808201518184015260208101905062000274565b83811115620002a1576000848401525b50505050565b60006002820490506001821680620002c057607f821691505b60208210811415620002d757620002d662000313565b5b50919050565b620002e88262000371565b810181811067ffffffffffffffff821117156200030a576200030962000342565b5b80604052505050565b7f4e487b7100000000000000000000000000000000000000000000000000000000600052602260045260246000fd5b7f4e487b7100000000000000000000000000000000000000000000000000000000600052604160045260246000fd5b6000601f19601f8301169050919050565b61258680620003926000396000f3fe608060405234801561001057600080fd5b50600436106100f55760003560e01c806370a0823111610097578063c87b56dd11610066578063c87b56dd14610282578063d082e381146102b2578063d85d3d27146102d0578063e985e9c5146102ec576100f5565b806370a08231146101fc57806395d89b411461022c578063a22cb4651461024a578063b88d4fde14610266576100f5565b8063095ea7b3116100d3578063095ea7b31461017857806323b872dd1461019457806342842e0e146101b05780636352211e146101cc576100f5565b806301ffc9a7146100fa57806306fdde031461012a578063081812fc14610148575b600080fd5b610114600480360381019061010f9190611951565b61031c565b6040516101219190611cb7565b60405180910390f35b6101326103fe565b60405161013f9190611cd2565b60405180910390f35b610162600480360381019061015d91906119e4565b610490565b60405161016f9190611c50565b60405180910390f35b610192600480360381019061018d9190611915565b6104d6565b005b6101ae60048036038101906101a9919061180f565b6105ee565b005b6101ca60048036038101906101c5919061180f565b61064e565b005b6101e660048036038101906101e191906119e4565b61066e565b6040516101f39190611c50565b60405180910390f35b610216600480360381019061021191906117aa565b610720565b6040516102239190611e74565b60405180910390f35b6102346107d8565b6040516102419190611cd2565b60405180910390f35b610264600480360381019061025f91906118d9565b61086a565b005b610280600480360381019061027b919061185e565b610880565b005b61029c600480360381019061029791906119e4565b6108e2565b6040516102a99190611cd2565b60405180910390f35b6102ba6109cf565b6040516102c79190611e74565b60405180910390f35b6102ea60048036038101906102e591906119a3565b6109d5565b005b610306600480360381019061030191906117d3565b610a08565b6040516103139190611cb7565b60405180910390f35b60007f80ac58cd000000000000000000000000000000000000000000000000000000007bffffffffffffffffffffffffffffffffffffffffffffffffffffffff1916827bffffffffffffffffffffffffffffffffffffffffffffffffffffffff191614806103e757507f5b5e139f000000000000000000000000000000000000000000000000000000007bffffffffffffffffffffffffffffffffffffffffffffffffffffffff1916827bffffffffffffffffffffffffffffffffffffffffffffffffffffffff1916145b806103f757506103f682610a9c565b5b9050919050565b60606000805461040d9061208e565b80601f01602080910402602001604051908101604052809291908181526020018280546104399061208e565b80156104865780601f1061045b57610100808354040283529160200191610486565b820191906000526020600020905b81548152906001019060200180831161046957829003601f168201915b5050505050905090565b600061049b82610b06565b6004600083815260200190815260200160002060009054906101000a900473ffffffffffffffffffffffffffffffffffffffff169050919050565b60006104e18261066e565b90508073ffffffffffffffffffffffffffffffffffffffff168373ffffffffffffffffffffffffffffffffffffffff161415610552576040517f08c379a000000000000000000000000000000000000000000000000000000000815260040161054990611e34565b60405180910390fd5b8073ffffffffffffffffffffffffffffffffffffffff16610571610b51565b73ffffffffffffffffffffffffffffffffffffffff1614806105a0575061059f8161059a610b51565b610a08565b5b6105df576040517f08c379a00000000000000000000000000000000000000000000000000000000081526004016105d690611dd4565b60405180910390fd5b6105e98383610b59565b505050565b6105ff6105f9610b51565b82610c12565b61063e576040517f08c379a000000000000000000000000000000000000000000000000000000000815260040161063590611e54565b60405180910390fd5b610649838383610ca7565b505050565b61066983838360405180602001604052806000815250610880565b505050565b6000806002600084815260200190815260200160002060009054906101000a900473ffffffffffffffffffffffffffffffffffffffff169050600073ffffffffffffffffffffffffffffffffffffffff168173ffffffffffffffffffffffffffffffffffffffff161415610717576040517f08c379a000000000000000000000000000000000000000000000000000000000815260040161070e90611e14565b60405180910390fd5b80915050919050565b60008073ffffffffffffffffffffffffffffffffffffffff168273ffffffffffffffffffffffffffffffffffffffff161415610791576040517f08c379a000000000000000000000000000000000000000000000000000000000815260040161078890611db4565b60405180910390fd5b600360008373ffffffffffffffffffffffffffffffffffffffff1673ffffffffffffffffffffffffffffffffffffffff168152602001908152602001600020549050919050565b6060600180546107e79061208e565b80601f01602080910402602001604051908101604052809291908181526020018280546108139061208e565b80156108605780601f1061083557610100808354040283529160200191610860565b820191906000526020600020905b81548152906001019060200180831161084357829003601f168201915b5050505050905090565b61087c610875610b51565b8383610f0e565b5050565b61089161088b610b51565b83610c12565b6108d0576040517f08c379a00000000000000000000000000000000000000000000000000000000081526004016108c790611e54565b60405180910390fd5b6108dc8484848461107b565b50505050565b60606108ed826110d7565b61092c576040517f08c379a000000000000000000000000000000000000000000000000000000000815260040161092390611d94565b60405180910390fd5b60076000838152602001908152602001600020805461094a9061208e565b80601f01602080910402602001604051908101604052809291908181526020018280546109769061208e565b80156109c35780601f10610998576101008083540402835291602001916109c3565b820191906000526020600020905b8154815290600101906020018083116109a657829003601f168201915b50505050509050919050565b60065481565b6109e133600654611143565b6109ed60065482611161565b60066000815480929190610a00906120f1565b919050555050565b6000600560008473ffffffffffffffffffffffffffffffffffffffff1673ffffffffffffffffffffffffffffffffffffffff16815260200190815260200160002060008373ffffffffffffffffffffffffffffffffffffffff1673ffffffffffffffffffffffffffffffffffffffff16815260200190815260200160002060009054906101000a900460ff16905092915050565b60007f01ffc9a7000000000000000000000000000000000000000000000000000000007bffffffffffffffffffffffffffffffffffffffffffffffffffffffff1916827bffffffffffffffffffffffffffffffffffffffffffffffffffffffff1916149050919050565b610b0f816110d7565b610b4e576040517f08c379a0000000000000000000000000000000000000000000000000000000008152600401610b4590611e14565b60405180910390fd5b50565b600033905090565b816004600083815260200190815260200160002060006101000a81548173ffffffffffffffffffffffffffffffffffffffff021916908373ffffffffffffffffffffffffffffffffffffffff160217905550808273ffffffffffffffffffffffffffffffffffffffff16610bcc8361066e565b73ffffffffffffffffffffffffffffffffffffffff167f8c5be1e5ebec7d5bd14f71427d1e84f3dd0314c0f7b2291e5b200ac8c7c3b92560405160405180910390a45050565b600080610c1e8361066e565b90508073ffffffffffffffffffffffffffffffffffffffff168473ffffffffffffffffffffffffffffffffffffffff161480610c605750610c5f8185610a08565b5b80610c9e57508373ffffffffffffffffffffffffffffffffffffffff16610c8684610490565b73ffffffffffffffffffffffffffffffffffffffff16145b91505092915050565b8273ffffffffffffffffffffffffffffffffffffffff16610cc78261066e565b73ffffffffffffffffffffffffffffffffffffffff1614610d1d576040517f08c379a0000000000000000000000000000000000000000000000000000000008152600401610d1490611d14565b60405180910390fd5b600073ffffffffffffffffffffffffffffffffffffffff168273ffffffffffffffffffffffffffffffffffffffff161415610d8d576040517f08c379a0000000000000000000000000000000000000000000000000000000008152600401610d8490611d54565b60405180910390fd5b610d988383836111d5565b610da3600082610b59565b6001600360008573ffffffffffffffffffffffffffffffffffffffff1673ffffffffffffffffffffffffffffffffffffffff1681526020019081526020016000206000828254610df39190611fa4565b925050819055506001600360008473ffffffffffffffffffffffffffffffffffffffff1673ffffffffffffffffffffffffffffffffffffffff1681526020019081526020016000206000828254610e4a9190611f4e565b92505081905550816002600083815260200190815260200160002060006101000a81548173ffffffffffffffffffffffffffffffffffffffff021916908373ffffffffffffffffffffffffffffffffffffffff160217905550808273ffffffffffffffffffffffffffffffffffffffff168473ffffffffffffffffffffffffffffffffffffffff167fddf252ad1be2c89b69c2b068fc378daa952ba7f163c4a11628f55a4df523b3ef60405160405180910390a4610f098383836111da565b505050565b8173ffffffffffffffffffffffffffffffffffffffff168373ffffffffffffffffffffffffffffffffffffffff161415610f7d576040517f08c379a0000000000000000000000000000000000000000000000000000000008152600401610f7490611d74565b60405180910390fd5b80600560008573ffffffffffffffffffffffffffffffffffffffff1673ffffffffffffffffffffffffffffffffffffffff16815260200190815260200160002060008473ffffffffffffffffffffffffffffffffffffffff1673ffffffffffffffffffffffffffffffffffffffff16815260200190815260200160002060006101000a81548160ff0219169083151502179055508173ffffffffffffffffffffffffffffffffffffffff168373ffffffffffffffffffffffffffffffffffffffff167f17307eab39ab6107e8899845ad3d59bd9653f200f220920489ca2b5937696c318360405161106e9190611cb7565b60405180910390a3505050565b611086848484610ca7565b611092848484846111df565b6110d1576040517f08c379a00000000000000000000000000000000000000000000000000000000081526004016110c890611cf4565b60405180910390fd5b50505050565b60008073ffffffffffffffffffffffffffffffffffffffff166002600084815260200190815260200160002060009054906101000a900473ffffffffffffffffffffffffffffffffffffffff1673ffffffffffffffffffffffffffffffffffffffff1614159050919050565b61115d828260405180602001604052806000815250611376565b5050565b61116a826110d7565b6111a9576040517f08c379a00000000000000000000000000000000000000000000000000000000081526004016111a090611d94565b60405180910390fd5b806007600084815260200190815260200160002090805190602001906111d09291906115ce565b505050565b505050565b505050565b60006112008473ffffffffffffffffffffffffffffffffffffffff166113d1565b15611369578373ffffffffffffffffffffffffffffffffffffffff1663150b7a02611229610b51565b8786866040518563ffffffff1660e01b815260040161124b9493929190611c6b565b602060405180830381600087803b15801561126557600080fd5b505af192505050801561129657506040513d601f19601f82011682018060405250810190611293919061197a565b60015b611319573d80600081146112c6576040519150601f19603f3d011682016040523d82523d6000602084013e6112cb565b606091505b50600081511415611311576040517f08c379a000000000000000000000000000000000000000000000000000000000815260040161130890611cf4565b60405180910390fd5b805181602001fd5b63150b7a0260e01b7bffffffffffffffffffffffffffffffffffffffffffffffffffffffff1916817bffffffffffffffffffffffffffffffffffffffffffffffffffffffff19161491505061136e565b600190505b949350505050565b61138083836113f4565b61138d60008484846111df565b6113cc576040517f08c379a00000000000000000000000000000000000000000000000000000000081526004016113c390611cf4565b60405180910390fd5b505050565b6000808273ffffffffffffffffffffffffffffffffffffffff163b119050919050565b600073ffffffffffffffffffffffffffffffffffffffff168273ffffffffffffffffffffffffffffffffffffffff161415611464576040517f08c379a000000000000000000000000000000000000000000000000000000000815260040161145b90611df4565b60405180910390fd5b61146d816110d7565b156114ad576040517f08c379a00000000000000000000000000000000000000000000000000000000081526004016114a490611d34565b60405180910390fd5b6114b9600083836111d5565b6001600360008473ffffffffffffffffffffffffffffffffffffffff1673ffffffffffffffffffffffffffffffffffffffff16815260200190815260200160002060008282546115099190611f4e565b92505081905550816002600083815260200190815260200160002060006101000a81548173ffffffffffffffffffffffffffffffffffffffff021916908373ffffffffffffffffffffffffffffffffffffffff160217905550808273ffffffffffffffffffffffffffffffffffffffff16600073ffffffffffffffffffffffffffffffffffffffff167fddf252ad1be2c89b69c2b068fc378daa952ba7f163c4a11628f55a4df523b3ef60405160405180910390a46115ca600083836111da565b5050565b8280546115da9061208e565b90600052602060002090601f0160209004810192826115fc5760008555611643565b82601f1061161557805160ff1916838001178555611643565b82800160010185558215611643579182015b82811115611642578251825591602001919060010190611627565b5b5090506116509190611654565b5090565b5b8082111561166d576000816000905550600101611655565b5090565b600061168461167f84611eb4565b611e8f565b90508281526020810184848401111561169c57600080fd5b6116a784828561204c565b509392505050565b60006116c26116bd84611ee5565b611e8f565b9050828152602081018484840111156116da57600080fd5b6116e584828561204c565b509392505050565b6000813590506116fc816124f4565b92915050565b6000813590506117118161250b565b92915050565b60008135905061172681612522565b92915050565b60008151905061173b81612522565b92915050565b600082601f83011261175257600080fd5b8135611762848260208601611671565b91505092915050565b600082601f83011261177c57600080fd5b813561178c8482602086016116af565b91505092915050565b6000813590506117a481612539565b92915050565b6000602082840312156117bc57600080fd5b60006117ca848285016116ed565b91505092915050565b600080604083850312156117e657600080fd5b60006117f4858286016116ed565b9250506020611805858286016116ed565b9150509250929050565b60008060006060848603121561182457600080fd5b6000611832868287016116ed565b9350506020611843868287016116ed565b925050604061185486828701611795565b9150509250925092565b6000806000806080858703121561187457600080fd5b6000611882878288016116ed565b9450506020611893878288016116ed565b93505060406118a487828801611795565b925050606085013567ffffffffffffffff8111156118c157600080fd5b6118cd87828801611741565b91505092959194509250565b600080604083850312156118ec57600080fd5b60006118fa858286016116ed565b925050602061190b85828601611702565b9150509250929050565b6000806040838503121561192857600080fd5b6000611936858286016116ed565b925050602061194785828601611795565b9150509250929050565b60006020828403121561196357600080fd5b600061197184828501611717565b91505092915050565b60006020828403121561198c57600080fd5b600061199a8482850161172c565b91505092915050565b6000602082840312156119b557600080fd5b600082013567ffffffffffffffff8111156119cf57600080fd5b6119db8482850161176b565b91505092915050565b6000602082840312156119f657600080fd5b6000611a0484828501611795565b91505092915050565b611a1681611fd8565b82525050565b611a2581611fea565b82525050565b6000611a3682611f16565b611a408185611f2c565b9350611a5081856020860161205b565b611a59816121c7565b840191505092915050565b6000611a6f82611f21565b611a798185611f3d565b9350611a8981856020860161205b565b611a92816121c7565b840191505092915050565b6000611aaa603283611f3d565b9150611ab5826121d8565b604082019050919050565b6000611acd602583611f3d565b9150611ad882612227565b604082019050919050565b6000611af0601c83611f3d565b9150611afb82612276565b602082019050919050565b6000611b13602483611f3d565b9150611b1e8261229f565b604082019050919050565b6000611b36601983611f3d565b9150611b41826122ee565b602082019050919050565b6000611b59602d83611f3d565b9150611b6482612317565b604082019050919050565b6000611b7c602983611f3d565b9150611b8782612366565b604082019050919050565b6000611b9f603e83611f3d565b9150611baa826123b5565b604082019050919050565b6000611bc2602083611f3d565b9150611bcd82612404565b602082019050919050565b6000611be5601883611f3d565b9150611bf08261242d565b602082019050919050565b6000611c08602183611f3d565b9150611c1382612456565b604082019050919050565b6000611c2b602e83611f3d565b9150611c36826124a5565b604082019050919050565b611c4a81612042565b82525050565b6000602082019050611c656000830184611a0d565b92915050565b6000608082019050611c806000830187611a0d565b611c8d6020830186611a0d565b611c9a6040830185611c41565b8181036060830152611cac8184611a2b565b905095945050505050565b6000602082019050611ccc6000830184611a1c565b92915050565b60006020820190508181036000830152611cec8184611a64565b905092915050565b60006020820190508181036000830152611d0d81611a9d565b9050919050565b60006020820190508181036000830152611d2d81611ac0565b9050919050565b60006020820190508181036000830152611d4d81611ae3565b9050919050565b60006020820190508181036000830152611d6d81611b06565b9050919050565b60006020820190508181036000830152611d8d81611b29565b9050919050565b60006020820190508181036000830152611dad81611b4c565b9050919050565b60006020820190508181036000830152611dcd81611b6f565b9050919050565b60006020820190508181036000830152611ded81611b92565b9050919050565b60006020820190508181036000830152611e0d81611bb5565b9050919050565b60006020820190508181036000830152611e2d81611bd8565b9050919050565b60006020820190508181036000830152611e4d81611bfb565b9050919050565b60006020820190508181036000830152611e6d81611c1e565b9050919050565b6000602082019050611e896000830184611c41565b92915050565b6000611e99611eaa565b9050611ea582826120c0565b919050565b6000604051905090565b600067ffffffffffffffff821115611ecf57611ece612198565b5b611ed8826121c7565b9050602081019050919050565b600067ffffffffffffffff821115611f0057611eff612198565b5b611f09826121c7565b9050602081019050919050565b600081519050919050565b600081519050919050565b600082825260208201905092915050565b600082825260208201905092915050565b6000611f5982612042565b9150611f6483612042565b9250827fffffffffffffffffffffffffffffffffffffffffffffffffffffffffffffffff03821115611f9957611f9861213a565b5b828201905092915050565b6000611faf82612042565b9150611fba83612042565b925082821015611fcd57611fcc61213a565b5b828203905092915050565b6000611fe382612022565b9050919050565b60008115159050919050565b60007fffffffff0000000000000000000000000000000000000000000000000000000082169050919050565b600073ffffffffffffffffffffffffffffffffffffffff82169050919050565b6000819050919050565b82818337600083830152505050565b60005b8381101561207957808201518184015260208101905061205e565b83811115612088576000848401525b50505050565b600060028204905060018216806120a657607f821691505b602082108114156120ba576120b9612169565b5b50919050565b6120c9826121c7565b810181811067ffffffffffffffff821117156120e8576120e7612198565b5b80604052505050565b60006120fc82612042565b91507fffffffffffffffffffffffffffffffffffffffffffffffffffffffffffffffff82141561212f5761212e61213a565b5b600182019050919050565b7f4e487b7100000000000000000000000000000000000000000000000000000000600052601160045260246000fd5b7f4e487b7100000000000000000000000000000000000000000000000000000000600052602260045260246000fd5b7f4e487b7100000000000000000000000000000000000000000000000000000000600052604160045260246000fd5b6000601f19601f8301169050919050565b7f4552433732313a207472616e7366657220746f206e6f6e20455243373231526560008201527f63656976657220696d706c656d656e7465720000000000000000000000000000602082015250565b7f4552433732313a207472616e736665722066726f6d20696e636f72726563742060008201527f6f776e6572000000000000000000000000000000000000000000000000000000602082015250565b7f4552433732313a20746f6b656e20616c7265616479206d696e74656400000000600082015250565b7f4552433732313a207472616e7366657220746f20746865207a65726f2061646460008201527f7265737300000000000000000000000000000000000000000000000000000000602082015250565b7f4552433732313a20617070726f766520746f2063616c6c657200000000000000600082015250565b7f4552433732314d65746164617461203a2055524920736574206f66206e6f6e6560008201527f78697374656e7420746f6b656e00000000000000000000000000000000000000602082015250565b7f4552433732313a2061646472657373207a65726f206973206e6f74206120766160008201527f6c6964206f776e65720000000000000000000000000000000000000000000000602082015250565b7f4552433732313a20617070726f76652063616c6c6572206973206e6f7420746f60008201527f6b656e206f776e6572206e6f7220617070726f76656420666f7220616c6c0000602082015250565b7f4552433732313a206d696e7420746f20746865207a65726f2061646472657373600082015250565b7f4552433732313a20696e76616c696420746f6b656e2049440000000000000000600082015250565b7f4552433732313a20617070726f76616c20746f2063757272656e74206f776e6560008201527f7200000000000000000000000000000000000000000000000000000000000000602082015250565b7f4552433732313a2063616c6c6572206973206e6f7420746f6b656e206f776e6560008201527f72206e6f7220617070726f766564000000000000000000000000000000000000602082015250565b6124fd81611fd8565b811461250857600080fd5b50565b61251481611fea565b811461251f57600080fd5b50565b61252b81611ff6565b811461253657600080fd5b50565b61254281612042565b811461254d57600080fd5b5056fea2646970667358221220f21179e1448223697aac413f144e0d8f6c241c783daf6b9be4a7846b8488119564736f6c63430008010033",
  "linkReferences": {},
  "deployedLinkReferences": {}
}